{
  "contractName": "Todos",
  "abi": [
    {
      "anonymous": false,
      "inputs": [
        {
          "indexed": false,
          "internalType": "uint256",
          "name": "choreIndx",
          "type": "uint256"
        }
      ],
      "name": "RemoveTask",
      "type": "event"
    },
    {
      "anonymous": false,
      "inputs": [
        {
          "components": [
            {
              "internalType": "string",
              "name": "title",
              "type": "string"
            },
            {
              "internalType": "string",
              "name": "notes",
              "type": "string"
            },
            {
              "internalType": "enum Todos.Priority",
              "name": "priority",
              "type": "uint8"
            },
            {
              "internalType": "uint64",
              "name": "timestamp",
              "type": "uint64"
            },
            {
              "internalType": "bool",
              "name": "completed",
              "type": "bool"
            }
          ],
          "indexed": false,
          "internalType": "struct Todos.Chore",
          "name": "chore",
          "type": "tuple"
        }
      ],
      "name": "Task",
      "type": "event"
    },
    {
      "inputs": [
        {
          "internalType": "string",
          "name": "_title",
          "type": "string"
        },
        {
          "internalType": "string",
          "name": "_notes",
          "type": "string"
        },
        {
          "internalType": "enum Todos.Priority",
          "name": "_priority",
          "type": "uint8"
        },
        {
          "internalType": "uint64",
          "name": "_timestamp",
          "type": "uint64"
        }
      ],
      "name": "addChore",
      "outputs": [],
      "stateMutability": "nonpayable",
      "type": "function"
    },
    {
      "inputs": [
        {
          "internalType": "uint256",
          "name": "_choreIndx",
          "type": "uint256"
        },
        {
          "internalType": "string",
          "name": "_title",
          "type": "string"
        },
        {
          "internalType": "string",
          "name": "_notes",
          "type": "string"
        },
        {
          "internalType": "enum Todos.Priority",
          "name": "_priority",
          "type": "uint8"
        },
        {
          "internalType": "uint64",
          "name": "_timestamp",
          "type": "uint64"
        }
      ],
      "name": "updateChore",
      "outputs": [],
      "stateMutability": "nonpayable",
      "type": "function"
    },
    {
      "inputs": [
        {
          "internalType": "uint256",
          "name": "_choreIndx",
          "type": "uint256"
        },
        {
          "internalType": "bool",
          "name": "completed",
          "type": "bool"
        }
      ],
      "name": "updateStatus",
      "outputs": [],
      "stateMutability": "nonpayable",
      "type": "function"
    },
    {
      "inputs": [
        {
          "internalType": "uint256",
          "name": "_choreIndx",
          "type": "uint256"
        }
      ],
      "name": "getChore",
      "outputs": [
        {
          "components": [
            {
              "internalType": "string",
              "name": "title",
              "type": "string"
            },
            {
              "internalType": "string",
              "name": "notes",
              "type": "string"
            },
            {
              "internalType": "enum Todos.Priority",
              "name": "priority",
              "type": "uint8"
            },
            {
              "internalType": "uint64",
              "name": "timestamp",
              "type": "uint64"
            },
            {
              "internalType": "bool",
              "name": "completed",
              "type": "bool"
            }
          ],
          "internalType": "struct Todos.Chore",
          "name": "",
          "type": "tuple"
        }
      ],
      "stateMutability": "view",
      "type": "function",
      "constant": true
    },
    {
      "inputs": [],
      "name": "getChores",
      "outputs": [
        {
          "components": [
            {
              "internalType": "string",
              "name": "title",
              "type": "string"
            },
            {
              "internalType": "string",
              "name": "notes",
              "type": "string"
            },
            {
              "internalType": "enum Todos.Priority",
              "name": "priority",
              "type": "uint8"
            },
            {
              "internalType": "uint64",
              "name": "timestamp",
              "type": "uint64"
            },
            {
              "internalType": "bool",
              "name": "completed",
              "type": "bool"
            }
          ],
          "internalType": "struct Todos.Chore[]",
          "name": "",
          "type": "tuple[]"
        }
      ],
      "stateMutability": "view",
      "type": "function",
      "constant": true
    },
    {
      "inputs": [
        {
          "internalType": "uint256",
          "name": "_choreIndx",
          "type": "uint256"
        }
      ],
      "name": "deleteChore",
      "outputs": [],
      "stateMutability": "nonpayable",
      "type": "function"
    }
  ],
  "bytecode": "0x608060405234801561001057600080fd5b506119b1806100206000396000f3fe608060405234801561001057600080fd5b50600436106100625760003560e01c80630210c9fa146100675780631b9d459d146100975780632957dc4e146100b3578063387008c2146100cf578063c00f3d72146100eb578063fb66d1b414610109575b600080fd5b610081600480360381019061007c919061105a565b610125565b60405161008e9190611252565b60405180910390f35b6100b160048036038101906100ac919061132a565b610349565b005b6100cd60048036038101906100c891906113d1565b61061c565b005b6100e960048036038101906100e491906114b9565b6109d1565b005b6100f3610ba5565b6040516101009190611638565b60405180910390f35b610123600480360381019061011e919061105a565b610dec565b005b61012d610eea565b6000803373ffffffffffffffffffffffffffffffffffffffff1673ffffffffffffffffffffffffffffffffffffffff168152602001908152602001600020828154811061017d5761017c61165a565b5b90600052602060002090600302016040518060a00160405290816000820180546101a6906116b8565b80601f01602080910402602001604051908101604052809291908181526020018280546101d2906116b8565b801561021f5780601f106101f45761010080835404028352916020019161021f565b820191906000526020600020905b81548152906001019060200180831161020257829003601f168201915b50505050508152602001600182018054610238906116b8565b80601f0160208091040260200160405190810160405280929190818152602001828054610264906116b8565b80156102b15780601f10610286576101008083540402835291602001916102b1565b820191906000526020600020905b81548152906001019060200180831161029457829003601f168201915b505050505081526020016002820160009054906101000a900460ff1660028111156102df576102de611120565b5b60028111156102f1576102f0611120565b5b81526020016002820160019054906101000a900467ffffffffffffffff1667ffffffffffffffff1667ffffffffffffffff1681526020016002820160099054906101000a900460ff1615151515815250509050919050565b60008060003373ffffffffffffffffffffffffffffffffffffffff1673ffffffffffffffffffffffffffffffffffffffff1681526020019081526020016000208054905090506000803373ffffffffffffffffffffffffffffffffffffffff1673ffffffffffffffffffffffffffffffffffffffff1681526020019081526020016000206040518060a0016040528089898080601f016020809104026020016040519081016040528093929190818152602001838380828437600081840152601f19601f82011690508083019250505050505050815260200187878080601f016020809104026020016040519081016040528093929190818152602001838380828437600081840152601f19601f82011690508083019250505050505050815260200185600281111561047f5761047e611120565b5b81526020018467ffffffffffffffff16815260200160001515815250908060018154018082558091505060019003906000526020600020906003020160009091909190915060008201518160000190805190602001906104e0929190610f37565b5060208201518160010190805190602001906104fd929190610f37565b5060408201518160020160006101000a81548160ff0219169083600281111561052957610528611120565b5b021790555060608201518160020160016101000a81548167ffffffffffffffff021916908367ffffffffffffffff16021790555060808201518160020160096101000a81548160ff02191690831515021790555050507f713adbfdec0dc60c338f888cc1d030ab613bea9ace8b57a2b9550e35cfdbdb496000803373ffffffffffffffffffffffffffffffffffffffff1673ffffffffffffffffffffffffffffffffffffffff16815260200190815260200160002082815481106105f0576105ef61165a565b5b906000526020600020906003020160405161060b91906118b2565b60405180910390a150505050505050565b60008060003373ffffffffffffffffffffffffffffffffffffffff1673ffffffffffffffffffffffffffffffffffffffff168152602001908152602001600020888154811061066e5761066d61165a565b5b906000526020600020906003020160020160019054906101000a900467ffffffffffffffff1667ffffffffffffffff1614156106df576040517f08c379a00000000000000000000000000000000000000000000000000000000081526004016106d690611931565b60405180910390fd5b6040518060a0016040528087878080601f016020809104026020016040519081016040528093929190818152602001838380828437600081840152601f19601f82011690508083019250505050505050815260200185858080601f016020809104026020016040519081016040528093929190818152602001838380828437600081840152601f19601f82011690508083019250505050505050815260200183600281111561079157610790611120565b5b81526020018267ffffffffffffffff1681526020016000803373ffffffffffffffffffffffffffffffffffffffff1673ffffffffffffffffffffffffffffffffffffffff16815260200190815260200160002089815481106107f6576107f561165a565b5b906000526020600020906003020160020160099054906101000a900460ff1615158152506000803373ffffffffffffffffffffffffffffffffffffffff1673ffffffffffffffffffffffffffffffffffffffff168152602001908152602001600020888154811061086a5761086961165a565b5b90600052602060002090600302016000820151816000019080519060200190610894929190610f37565b5060208201518160010190805190602001906108b1929190610f37565b5060408201518160020160006101000a81548160ff021916908360028111156108dd576108dc611120565b5b021790555060608201518160020160016101000a81548167ffffffffffffffff021916908367ffffffffffffffff16021790555060808201518160020160096101000a81548160ff0219169083151502179055509050507f713adbfdec0dc60c338f888cc1d030ab613bea9ace8b57a2b9550e35cfdbdb496000803373ffffffffffffffffffffffffffffffffffffffff1673ffffffffffffffffffffffffffffffffffffffff16815260200190815260200160002088815481106109a5576109a461165a565b5b90600052602060002090600302016040516109c091906118b2565b60405180910390a150505050505050565b60008060003373ffffffffffffffffffffffffffffffffffffffff1673ffffffffffffffffffffffffffffffffffffffff1681526020019081526020016000208381548110610a2357610a2261165a565b5b906000526020600020906003020160020160019054906101000a900467ffffffffffffffff1667ffffffffffffffff161415610a94576040517f08c379a0000000000000000000000000000000000000000000000000000000008152600401610a8b90611931565b60405180910390fd5b806000803373ffffffffffffffffffffffffffffffffffffffff1673ffffffffffffffffffffffffffffffffffffffff1681526020019081526020016000208381548110610ae557610ae461165a565b5b906000526020600020906003020160020160096101000a81548160ff0219169083151502179055507f713adbfdec0dc60c338f888cc1d030ab613bea9ace8b57a2b9550e35cfdbdb496000803373ffffffffffffffffffffffffffffffffffffffff1673ffffffffffffffffffffffffffffffffffffffff1681526020019081526020016000208381548110610b7e57610b7d61165a565b5b9060005260206000209060030201604051610b9991906118b2565b60405180910390a15050565b60606000803373ffffffffffffffffffffffffffffffffffffffff1673ffffffffffffffffffffffffffffffffffffffff168152602001908152602001600020805480602002602001604051908101604052809291908181526020016000905b82821015610de357838290600052602060002090600302016040518060a0016040529081600082018054610c38906116b8565b80601f0160208091040260200160405190810160405280929190818152602001828054610c64906116b8565b8015610cb15780601f10610c8657610100808354040283529160200191610cb1565b820191906000526020600020905b815481529060010190602001808311610c9457829003601f168201915b50505050508152602001600182018054610cca906116b8565b80601f0160208091040260200160405190810160405280929190818152602001828054610cf6906116b8565b8015610d435780601f10610d1857610100808354040283529160200191610d43565b820191906000526020600020905b815481529060010190602001808311610d2657829003601f168201915b505050505081526020016002820160009054906101000a900460ff166002811115610d7157610d70611120565b5b6002811115610d8357610d82611120565b5b81526020016002820160019054906101000a900467ffffffffffffffff1667ffffffffffffffff1667ffffffffffffffff1681526020016002820160099054906101000a900460ff16151515158152505081526020019060010190610c05565b50505050905090565b6000803373ffffffffffffffffffffffffffffffffffffffff1673ffffffffffffffffffffffffffffffffffffffff1681526020019081526020016000208181548110610e3c57610e3b61165a565b5b906000526020600020906003020160008082016000610e5b9190610fbd565b600182016000610e6b9190610fbd565b6002820160006101000a81549060ff02191690556002820160016101000a81549067ffffffffffffffff02191690556002820160096101000a81549060ff021916905550507f63bf8f81d65287abb84c61b033d925cc6e0ad639ddc05c12c6a26ae790c83f0c81604051610edf9190611960565b60405180910390a150565b6040518060a00160405280606081526020016060815260200160006002811115610f1757610f16611120565b5b8152602001600067ffffffffffffffff1681526020016000151581525090565b828054610f43906116b8565b90600052602060002090601f016020900481019282610f655760008555610fac565b82601f10610f7e57805160ff1916838001178555610fac565b82800160010185558215610fac579182015b82811115610fab578251825591602001919060010190610f90565b5b509050610fb99190610ffd565b5090565b508054610fc9906116b8565b6000825580601f10610fdb5750610ffa565b601f016020900490600052602060002090810190610ff99190610ffd565b5b50565b5b80821115611016576000816000905550600101610ffe565b5090565b600080fd5b600080fd5b6000819050919050565b61103781611024565b811461104257600080fd5b50565b6000813590506110548161102e565b92915050565b6000602082840312156110705761106f61101a565b5b600061107e84828501611045565b91505092915050565b600081519050919050565b600082825260208201905092915050565b60005b838110156110c15780820151818401526020810190506110a6565b838111156110d0576000848401525b50505050565b6000601f19601f8301169050919050565b60006110f282611087565b6110fc8185611092565b935061110c8185602086016110a3565b611115816110d6565b840191505092915050565b7f4e487b7100000000000000000000000000000000000000000000000000000000600052602160045260246000fd5b600381106111605761115f611120565b5b50565b60008190506111718261114f565b919050565b600061118182611163565b9050919050565b61119181611176565b82525050565b600067ffffffffffffffff82169050919050565b6111b481611197565b82525050565b60008115159050919050565b6111cf816111ba565b82525050565b600060a08301600083015184820360008601526111f282826110e7565b9150506020830151848203602086015261120c82826110e7565b91505060408301516112216040860182611188565b50606083015161123460608601826111ab565b50608083015161124760808601826111c6565b508091505092915050565b6000602082019050818103600083015261126c81846111d5565b905092915050565b600080fd5b600080fd5b600080fd5b60008083601f84011261129957611298611274565b5b8235905067ffffffffffffffff8111156112b6576112b5611279565b5b6020830191508360018202830111156112d2576112d161127e565b5b9250929050565b600381106112e657600080fd5b50565b6000813590506112f8816112d9565b92915050565b61130781611197565b811461131257600080fd5b50565b600081359050611324816112fe565b92915050565b600080600080600080608087890312156113475761134661101a565b5b600087013567ffffffffffffffff8111156113655761136461101f565b5b61137189828a01611283565b9650965050602087013567ffffffffffffffff8111156113945761139361101f565b5b6113a089828a01611283565b945094505060406113b389828a016112e9565b92505060606113c489828a01611315565b9150509295509295509295565b600080600080600080600060a0888a0312156113f0576113ef61101a565b5b60006113fe8a828b01611045565b975050602088013567ffffffffffffffff81111561141f5761141e61101f565b5b61142b8a828b01611283565b9650965050604088013567ffffffffffffffff81111561144e5761144d61101f565b5b61145a8a828b01611283565b9450945050606061146d8a828b016112e9565b925050608061147e8a828b01611315565b91505092959891949750929550565b611496816111ba565b81146114a157600080fd5b50565b6000813590506114b38161148d565b92915050565b600080604083850312156114d0576114cf61101a565b5b60006114de85828601611045565b92505060206114ef858286016114a4565b9150509250929050565b600081519050919050565b600082825260208201905092915050565b6000819050602082019050919050565b600060a083016000830151848203600086015261154282826110e7565b9150506020830151848203602086015261155c82826110e7565b91505060408301516115716040860182611188565b50606083015161158460608601826111ab565b50608083015161159760808601826111c6565b508091505092915050565b60006115ae8383611525565b905092915050565b6000602082019050919050565b60006115ce826114f9565b6115d88185611504565b9350836020820285016115ea85611515565b8060005b85811015611626578484038952815161160785826115a2565b9450611612836115b6565b925060208a019950506001810190506115ee565b50829750879550505050505092915050565b6000602082019050818103600083015261165281846115c3565b905092915050565b7f4e487b7100000000000000000000000000000000000000000000000000000000600052603260045260246000fd5b7f4e487b7100000000000000000000000000000000000000000000000000000000600052602260045260246000fd5b600060028204905060018216806116d057607f821691505b602082108114156116e4576116e3611689565b5b50919050565b60008190508160005260206000209050919050565b6000815461170c816116b8565b6117168186611092565b94506001821660008114611731576001811461174357611776565b60ff1983168652602086019350611776565b61174c856116ea565b60005b8381101561176e5781548189015260018201915060208101905061174f565b808801955050505b50505092915050565b60008160001c9050919050565b600060ff82169050919050565b60006117ac6117a78361177f565b61178c565b9050919050565b60008160081c9050919050565b600067ffffffffffffffff82169050919050565b60006117e76117e2836117b3565b6117c0565b9050919050565b60008160481c9050919050565b600060ff82169050919050565b600061181b611816836117ee565b6117fb565b9050919050565b600060a083016000808401858303600087015261183f83826116ff565b92505060018401858303602087015261185883826116ff565b9250506002840154905061186b81611799565b6118786040870182611188565b50611882816117d4565b61188f60608701826111ab565b5061189981611808565b6118a660808701826111c6565b50819250505092915050565b600060208201905081810360008301526118cc8184611822565b905092915050565b600082825260208201905092915050565b7f63686f726520646f206e6f742065786973740000000000000000000000000000600082015250565b600061191b6012836118d4565b9150611926826118e5565b602082019050919050565b6000602082019050818103600083015261194a8161190e565b9050919050565b61195a81611024565b82525050565b60006020820190506119756000830184611951565b9291505056fea264697066735822122033af64e3feb4b865fdb24cc62ecb19456877f240abe7dd7e1c1d0ce35ab6354164736f6c63430008090033",
  "immutableReferences": {},
  "source": "// SPDX-License-Identifier: MIT\npragma solidity 0.8.9;\n\n\ncontract Todos {\n    enum Priority {\n        LOW,\n        MEDIUM,\n        HIGH\n    }\n\n    struct Chore {\n        string title;\n        string notes;\n        Priority priority;\n        uint64 timestamp;\n        bool completed;\n    }\n\n    mapping (address => Chore[]) private users;\n\n    event Task(Chore chore);\n    event RemoveTask(uint256 choreIndx);\n\n    \n    function addChore(string calldata _title, string calldata _notes, Priority _priority, uint64 _timestamp) external {\n        uint length = users[msg.sender].length;\n        users[msg.sender].push(Chore(_title, _notes, _priority, _timestamp, false));\n\n        emit Task(users[msg.sender][length]);\n    }\n\n    function updateChore(\n        uint256 _choreIndx, string calldata _title, string calldata _notes, Priority _priority, uint64 _timestamp\n    ) external {\n        require(users[msg.sender][_choreIndx].timestamp != 0, \"chore do not exist\");\n\n        users[msg.sender][_choreIndx] = Chore(\n            _title, _notes,\n            _priority, _timestamp,\n            users[msg.sender][_choreIndx].completed\n        );\n\n        emit Task(users[msg.sender][_choreIndx]);\n    }\n\n    function updateStatus(uint256 _choreIndx, bool completed) external {\n        require(users[msg.sender][_choreIndx].timestamp != 0, \"chore do not exist\");\n\n        users[msg.sender][_choreIndx].completed = completed;\n\n        emit Task(users[msg.sender][_choreIndx]);\n    }\n\n    function getChore(uint256 _choreIndx) external view returns (Chore memory) {\n        return users[msg.sender][_choreIndx];\n    }\n\n    function getChores() external view returns (Chore[] memory) {\n        return users[msg.sender];\n    }\n    \n    function deleteChore(uint256 _choreIndx) external {\n        delete users[msg.sender][_choreIndx];\n        emit RemoveTask(_choreIndx);\n    }\n}\n",
  "sourcePath": "/Users/ogooluwaakinola/Desktop/infura/blockchain/Personal-Projects/TODO-dapp/contracts/Todos.sol",
  "compiler": {
    "name": "solc",
    "version": "0.8.9+commit.e5eed63a.Emscripten.clang"
  },
  "schemaVersion": "3.4.8",
  "updatedAt": "2022-10-12T10:34:39.423Z",
  "networkType": "ethereum",
  "devdoc": {
    "kind": "dev",
    "methods": {},
    "version": 1
  },
  "userdoc": {
    "kind": "user",
    "methods": {},
    "version": 1
  }
}